:1000000084C70000B3C70000B1C70000AFC700003D
:10001000ADC70000ABC70000A9C70000A7C700001C
:10002000A5C70000A3C70000A1C700009FC700002C
:100030009DC700009BC7000099C7000097C700003C
:1000400095C7000093C7000091C700008FC700004C
:100050008DC700008BC7000089C700000C944D3984
:1000600085C700000C9443380C9479387FC7000092
:100070007DC700007BC7000079C7000077C700007C
:1000800075C7000073C7000071C700006FC700008C
:100090006DC700006BC7000069C7000067C700009C
:1000A00065C7000063C7000061C700005FC70000AC
:1000B0005DC700005BC7000059C7000057C70000BC
:1000C00055C7000053C7000051C700004FC70000CC
:1000D0004DC700004BC7000049C7000047C70000DC
:1000E00045C700003E110B1102111D1112110F1115
:1000F000F210FA104B1A691A901AA61AA61AA61A22
:10010000BD1A451B4B1A451BE01A451BEE1AEE1A89
:100110000B1B0B1B901A711B711B901AEE1A451BBF
:10012000A61A191B451B451B451B451B451B331BAD
:10013000451B451BDE1B3F1D281EF71E022002200B
:100140009421E8228D28F523E62552261B2AF42A3D
:10015000D02CD02C281EBB35BB35281EC72BD12D4B
:1001600016219A2E652F6B31923024326833C034B9
:10017000D4348D24903A933A823A863A8C3ACA3AE9
:10018000973A9B3AA13AA53AA93AAF3AB33AB73A65
:10019000CA3ABD3AC13AC53A7E306D79335B5F7079
:1001A0007F7B771F0D3D4F470000000000000000DF
:1001B000000000000000000000000000000000003F
:1001C00000000000800180007E306D79335B5F703D
:1001D0007F7B00000000000000771F0D3D4F4700AF
:1001E000370000000E000000670000000000000063
:1001F000000000000000000800771F0D3D4F470081
:10020000370000000E00151D670000000000000010
:1002100000000000000000001010205F000000003F
:1002200000000000000000000000000000000000CE
:1002300000000000000000000000000000000000BE
:1002400007000F800F800F800F800F8007000700CE
:1002500000000000070007000700000000000E3843
:100260000E380E380E380630000000000000000086
:1002700000000000000000000000000000000C3042
:100280000C300C307FFE7FFE0C300C300C300C300C
:100290007FFE7FFE0C300C300C300000000002406E
:1002A00002400FF81FF81A401A401FF00FF80258CA
:1002B00002581FF81FF0024002400000000000003A
:1002C00000000E100E300E7000E001C00380070029
:1002D0000E700C70087000000000000000000000AC
:1002E0000F001980198019800F000F080F9819F856
:1002F00018F018E019F00F9800000000000000004E
:100300000700070007000E000000000000000000CA
:1003100000000000000000000000000000000000DD
:1003200000F001C0038007000E000E000E000E005A
:100330000700038001C000F0000000000000000082
:100340000F00038001C000E00070007000700070BA
:1003500000E001C003800F0000000000000000006A
:1003600001801188099007E007E03FFC3FFC07E0AF
:1003700007E00990118801800000000000000000E3
:10038000000000000180018001800FF00FF001806B
:10039000018001800000000000000000000000005B
:1003A000000000000000000000000000000000004D
:1003B00000000700070007000E000000000000001A
:1003C000000000000000000000001FF81FF80000FF
:1003D000000000000000000000000000000000001D
:1003E000000000000000000000000000000000000D
:1003F00000000700070007000000000000000000E8
:1004000000020006000E001C0038007000E001C071
:10041000038007000E001C00000000000000000028
:100420000FF01C381C781CF81CF81DB81DB81F38BC
:100430001F381E381C380FF00000000000000000BC
:100440000180018003801F801F8003800380038060
:100450000380038003801FF0000000000000000004
:100460000FE01C701C380038007000E001C00380F1
:1004700007000E381C381FF80000000000000000C4
:100480000FE01C701C380038007003C003C00070FF
:1004900000381C381C700FE0000000000000000055
:1004A00000E001E003E006E00CE018E01FF81FF8B0
:1004B00000E000E000E003F80000000000000000A1
:1004C0001FF81C001C001C001C001FE01FF000781F
:1004D00000381C381C700FE0000000000000000015
:1004E00003E007000E001C001C001FF01FF81C3862
:1004F0001C381C381C380FF0000000000000000001
:100500001FFC1C1C1C1C1C1C001C0038007000E084
:1005100001C0038003800380000000000000000091
:100520000FF01C381C381C381F3807E007E01CF897
:100530001C381C381C380FF00000000000000000C0
:100540000FF01C381C381C381C381FF80FF8003806
:100550000038007000E007C000000000000000004C
:10056000000000000380038003800000000003807F
:100570000380038000000000000000000000000075
:10058000000000000380038003800000000003805F
:1005900003800380070000000000000000000070DE
:1005A00000E001C0038007000E001C001C000E00CC
:1005B0000700038001C000E00070000000000000A0
:1005C0000000000000003FFC3FFC000000003FFC7A
:1005D0003FFC0000000000000000000000001C00C4
:1005E0000E000700038001C000E00070007000E012
:1005F00001C0038007000E001C000000000003C0C3
:100600000FF01E7818380038007000E001C001C0FB
:100610000000000001C001C001C0000000000FF890
:100620001C1C1C1C1C1C1C1C1CFC1CFC1CFC1CFC8A
:100630001C001C001C001FF007F800000000000058
:1006400003C007E00E701C381C381C381C381FF81B
:100650001C381C381C381C3800000000000000004A
:100660001FF00E380E380E380E380FF00FF00E381F
:100670000E380E380E381FF0000000000000000099
:1006800007F00E381C381C001C001C001C001C004D
:100690001C001C380E3807F00000000000000000AD
:1006A0001FE00E700E380E380E380E380E380E3829
:1006B0000E380E380E701FE0000000000000000031
:1006C0001FF80E180E080E000E300FF00FF00E304F
:1006D0000E000E080E181FF80000000000000000B9
:1006E0001FF80E180E080E000E300FF00FF00E302F
:1006F0000E000E000E001F000000000000000000B1
:1007000007F00E381C381C381C001C001C001CF89C
:100710001C381C380E3807F80000000000000000EC
:100720001C701C701C701C701C701FF01FF01C7063
:100730001C701C701C701C70000000000000000089
:100740000FE0038003800380038003800380038025
:100750000380038003800FE0000000000000000021
:1007600001FC007000700070007000700070387044
:100770003870387038700FE0000000000000000092
:100780001E380E380E700EE00FC00F800F800FC0A5
:100790000EE00E700E381E38000000000000000051
:1007A0001F000E000E000E000E000E000E000E00C8
:1007B0000E080E180E381FF80000000000000000A0
:1007C0001C1C1E3C1F7C1FFC1FFC1DDC1C9C1C1CDD
:1007D0001C1C1C1C1C1C1C1C000000000000000039
:1007E0001C1C1C1C1E1C1F1C1F9C1DDC1CFC1C7CC0
:1007F0001C3C1C1C1C1C1C1C0000000000000000F9
:1008000003E007F00E381C1C1C1C1C1C1C1C1C1CB0
:100810001C1C0E3807F003E0000000000000000080
:100820001FF00E380E380E380E380FF00FF00E0095
:100830000E000E000E001F0000000000000000006F
:1008400003E00F780E381C1C1C1C1C1C1C1C1C7C80
:100850001CFC0FF80FF8003800FC0000000000003E
:100860001FF00E380E380E380E380FF00FF00E70E5
:100870000E380E380E381E38000000000000000050
:100880000FF01C381C381C381C000FE007F0003833
:100890001C381C381C380FF000000000000000005D
:1008A0001FFC19CC11C401C001C001C001C001C0AE
:1008B00001C001C001C007F00000000000000000FE
:1008C0001C701C701C701C701C701C701C701C70C8
:1008D0001C701C701C700FE0000000000000000085
:1008E0001C701C701C701C701C701C701C701C70A8
:1008F0001C700EE007C00380000000000000000034
:100900001C1C1C1C1C1C1C1C1C1C1C9C1C9C1C9CA7
:100910000FF80FF8077007700000000000000000DB
:100920001C701C701C700EE007C00380038007C0A1
:100930000EE01C701C701C70000000000000000025
:100940001C701C701C701C701C700EE007C00380B3
:100950000380038003800FE000000000000000001F
:100960001FF81C381838107000E001C00380070021
:100970000E081C181C381FF80000000000000000C2
:1009800007F007000700070007000700070007003F
:1009900007000700070007F000000000000000004B
:1009A000100018001C000E000700038001C000E0CA
:1009B00000700038001C000700000000000000006C
:1009C00007F0007000700070007000700070007020
:1009D00000700070007007F000000000000001804F
:1009E00003C007E00E701C3800000000000000008B
:1009F00000000000000000000000000000000000F7
:100A000000000000000000000000000000000000E6
:100A100000000000000000007FFF7FFF00000000DA
:100A20001C001C0007000700000000000000000080
:100A300000000000000000000000000000000000B6
:100A400000000000000000000FE0007000700FF0D8
:100A50001C701C701C700FD800000000000000000B
:100A60001E000E000E000E000FF00E380E380E386D
:100A70000E380E380E381BF0000000000000000099
:100A800000000000000000000FE01C701C701C0043
:100A90001C001C701C700FE0000000000000000033
:100AA00000F80070007000700FF01C701C701C705B
:100AB0001C701C701C700FD80000000000000000AB
:100AC00000000000000000000FE01C701C701FF010
:100AD0001C001C701C700FE00000000000000000F3
:100AE00003E007700770070007001FE01FE0070022
:100AF0000700070007001FC0000000000000000002
:100B000000000000000000000FD81C701C701C705A
:100B10001C700FF007F000701C700FE00000000068
:100B20001E000E000E000E000EF00F380F380E38AB
:100B30000E380E380E381E3800000000000000008D
:100B400001C001C001C000000FC001C001C001C050
:100B500001C001C001C00FF800000000000000004B
:100B6000007000700070000003F0007000700070F2
:100B70000070007000701C700CF007E000000000B6
:100B80001E000E000E000E000E380E700EE00FC09C
:100B90000EE00E700E381E3800000000000000004D
:100BA0000FC001C001C001C001C001C001C001C02F
:100BB00001C001C001C00FF80000000000000000EB
:100BC00000000000000000001FF81C9C1C9C1C9CE6
:100BD0001C9C1C9C1C9C1C9C000000000000000035
:100BE00000000000000000001FE01C701C701C7062
:100BF0001C701C701C701C700000000000000000C5
:100C000000000000000000000FE01C701C701C7051
:100C10001C701C701C700FE0000000000000000041
:100C200000000000000000001BF00E380E380E38E7
:100C30000E380E380FF00E000E001F0000000000EE
:100C400000000000000000001FB038E038E038E08D
:100C500038E038E01FE000E000E001F000000000B4
:100C600000000000000000001EF00FF80F380E001A
:100C70000E000E000E001F0000000000000000002B
:100C800000000000000000000FE01C301C300F804E
:100C900003E0187018700FE0000000000000000072
:100CA00000000100030007001FF007000700070015
:100CB00007000770077003E000000000000000005C
:100CC00000000000000000001C701C701C701C70F4
:100CD0001C701C701C700FD8000000000000000089
:100CE00000000000000000001C701C701C701C70D4
:100CF0001C700EE007C00380000000000000000030
:100D000000000000000000001C1C1C1C1C1C1C9C83
:100D10001C9C0FF807700770000000000000000026
:100D200000000000000000001CE01CE00FC0078075
:100D300007800FC01CE01CE0000000000000000065
:100D400000000000000000000E380E380E380E388B
:100D50000E3807F003E000E001C01F800000000033
:100D600000000000000000001FE018E011C0038038
:100D700007000E201C601FE00000000000000000C3
:100D800001F803800380038007001C001C0007009B
:100D900003800380038001F800000000000001C010
:100DA00001C001C001C001C001C001C001C001C03B
:100DB00001C001C001C001C001C00000000000006E
:100DC0001F8001C001C001C000E00038003800E011
:100DD00001C001C001C01F80000000000000000031
:100DE0001F1C3B9C39DC38F80000000000000000AC
:100DF00000000000000000000000000000000A0BDE
:100E000002090C0D0E080703040100000000000099
:100E100000000000000000000000000000000000D2
:100E2000000000000000000012111000000000008F
:100E300000000000000000000000000000000000B2
:100E400000000102102020080810204010204080DF
:100E5000020102010804020101020408102040807E
:100E6000804020100804020180040201804020100C
:100E70000804020108040201010204081020408055
:100E80000102040810204080050505050705080833
:100E90000808020202020A0A080804040404010104
:100EA0000101010101010303030303030303040719
:100EB00007070C0C0C0C0C0C0C0C020202020606B0
:100EC0000606060606060B0B0B0B0B0B0B0B0000A6
:100ED0002200250028002B002E00310034000201E2
:100EE0000000050108010B0100002100240027007B
:100EF0002A002D0030003300010100000401070129
:100F00000A010709630E3D0FAB3811241FBECFEF56
:100F1000D1E2DEBFCDBF00E00CBF13E0A0E0B2E045
:100F2000E6EEFEE700E00BBF02C007900D92A4348E
:100F3000B107D9F725E0A4E4B3E001C01D92A53BB9
:100F4000B207E1F71FE0CAE0DFE000E006C0229749
:100F50000109FE010BBF0E94193EC230D10780E09B
:100F60000807A9F70E9441390C94713F49C89C01B8
:100F7000FC01EE56FE4F80819181680F791F613927
:100F800041E0740730F4718360830296820F931FEF
:100F9000089580E090E008959C01FC01E653FF4F26
:100FA00080819181680F791F693C710530F47183EC
:100FB00060830296820F931F089580E090E0089569
:100FC000CF93DF93FC01808191818330910534F4CC
:100FD00081309105DCF4892BA1F12CC0853091057D
:100FE00084F0059739F582819381A481B5819C01B4
:100FF000AD0166277727CB01621B730B840B950B22
:1010000028C0628173818481958123C0C281D3818C
:101010002097B9F0BE018BEA92E00E94653F892BD0
:10102000A1F04AE050E060E070E0CE01DF91CF91A6
:101030000C942C3E62817381848195810E94473C8F
:1010400008C060E070E0CB0104C061E070E080E0C7
:1010500090E0DF91CF910895809108020C94533A6B
:10106000809106020C94533A8091C0040C94533A38
:101070008F929F92AF92BF92CF92DF92EF92FF92A8
:101080000F93CF93DF937C016B01009791F15B018C
:1010900077FF04C0AA24BB24A61AB70AC0E0D0E098
:1010A0008AE0882E912CA114B10491F0C830D105AA
:1010B00079F0C501B4010E94B83D5B0100E0282F22
:1010C000AE0160E070E0C7010E9498122196EBCF5C
:1010D000D7FE09C000E02DE2AE0160E070E0C7017C
:1010E0000E94C1122196C830D1051CF400E020E214
:1010F000F3CFDF91CF910F91FF90EF90DF90CF90E2
:10110000BF90AF909F908F900895AF92BF92CF9273
:10111000DF92EF92FF920F93CF93DF935C01EB018D
:1011200009900020E9F72197C61BD70B6B01CC0E65
:10113000DD1EE12CF12CCE018E199F09181619061F
:101140008CF400E0F60122916F01A70160E070E0ED
:10115000C5010E94C112FFEFEF1AFF0A88E0E816EE
:10116000F10449F7DF91CF910F91FF90EF90DF905D
:10117000CF90BF90AF90089588ECE8EFF3E0DF01E7
:101180001D928A95E9F71092F7031092F6030895DD
:10119000CF92DF92EF92FF920F931F93CF93DF9343
:1011A000EC016B010A811B81E880F980B801C7015D
:1011B0001AD6FC01009739F4C7010AD5FC01009743
:1011C000E1F013830283D7FC08C0A601662757FD10
:1011D0006095762F84E090E00AC0442755274C198B
:1011E0005D09662757FD6095762F85E090E0958331
:1011F00084834683578360877187CE01DF91CF91C7
:101200001F910F91FF90EF90DF90CF900895CF92B4
:10121000DF92EF92FF920F931F9390E3C92ED12C90
:1012200022E3E22EF12C04E310E02CE230E04EE267
:1012300050E069E084ED94E00E94E51701E010E0E1
:1012400022E030E043E050E064E070E08CE993E0BD
:101250000E940E1225E030E046E050E067E070E0CA
:1012600084E493E00E940E121F910F91FF90EF9083
:10127000DF90CF9008958DE095E00E94C536181656
:1012800019064CF58DE095E00E94DE362091F603BC
:101290003091F7038A3031F4F901E850FC4F1082A5
:1012A00081E00895273C31055CF4F901E850FC4FDA
:1012B00080832F5F3F4F3093F7032093F603DBCFFC
:1012C0006BE770E08CE993E0D3DE6BE770E084E4D9
:1012D00093E0CEDEFFCF80E00895EF92FF920F9370
:1012E0001F93CF93DF93CDB7DEB7CC5CD1090FB698
:1012F000F894DEBF0FBECDBF3FDFFF24F39403EFB2
:1013000012E0EE24E394B7DF81111CC0FF2041F00E
:1013100060EB72E08CE993E0F8DE69EB72E007C005
:1013200069EB72E08CE993E0F0DE60EB72E084E45C
:1013300093E0EBDEFE2468EE73E080E090E00E9434
:10134000BA39E1CF1A830983C553DF4F1982188256
:10135000CB5CD0404AE068EF73E0CE010196E4D464
:10136000FC0120813181232B31F162EC72E03BD50D
:10137000009719F0049624DE02C060E070E0603E41
:101380007740C9F468EC72E08CE993E0BEDE68EC6B
:1013900072E084E493E0B9DEEFDEC453DF4F0FB6B2
:1013A000F894DEBF0FBECDBFDF91CF911F910F919B
:1013B000FF90EF900895E0DEA6CF4F925F926F927C
:1013C0007F928F929F92AF92BF92CF92DF92EF92D5
:1013D000FF920F931F93CF93DF9300D01F92CDB74F
:1013E000DEB726E040E056E960E070E08DE095E091
:1013F0000E94D43761E084ED94E00E947D1B84ED6F
:1014000094E00E94E53528EC4FEF68EC84ED94E021
:101410000E94823620E040E060E084ED94E00E948B
:10142000963668E172E084ED94E00E94AA3640E0CE
:1014300060E070E08CE993E088D74FE050E060E036
:1014400070E08CE993E0A4D760E070E08CE993E071
:10145000B0D740E060E070E084E493E076D74FE0FE
:1014600050E060E070E084E493E092D760E070E0E8
:1014700084E493E09ED704E610E0EEDDAA2797FD12
:10148000A095BA2F4091D0045091D1046091D2041C
:101490007091D304480F591F6A1F7B1F4093D004DB
:1014A0005093D1046093D2047093D304D9DDAA275A
:1014B00097FDA095BA2F4091CC045091CD04609136
:1014C000CE047091CF04480F591F6A1F7B1F4093B1
:1014D000CC045093CD046093CE047093CF04C4DD4C
:1014E0006C01EE24D7FCE094FE2C8091C80490910E
:1014F000C904A091CA04B091CB04C80ED91EEA1E3B
:10150000FB1EC092C804D092C904E092CA04F092B3
:10151000CB040150110909F0B0CF6091D004709153
:10152000D1048091D2049091D30434E6832E912C7F
:10153000A12CB12CA50194010E94ED3D29833A8391
:101540004B835C832093D0043093D1044093D20426
:101550005093D3046091CC047091CD048091CE045B
:101560009091CF04A50194010E94ED3D29013A011B
:101570002093CC043093CD044093CE045093CF04F9
:10158000C701B601A50194010E94ED3D2093C80456
:101590003093C9044093CA045093CB0489819A8143
:1015A0009093C7048093C6045092C5044092C4042B
:1015B0003093C3042093C2048DE095E00E94343838
:1015C0009093F5038093F4030F900F900F900F907A
:1015D000DF91CF911F910F91FF90EF90DF90CF900F
:1015E000BF90AF909F908F907F906F905F904F9043
:1015F00074CE0F931F93CF93DF93CDB7DEB7C05E4A
:10160000D1090FB6F894DEBF0FBECDBF34DE8823FC
:1016100009F446C083EF92E09A838983C553DF4F74
:1016200019821882CB5CD0404AE068EF73E0CE01AB
:1016300001967AD38C01DC018D919C91892B59F410
:1016400061ED72E08CE993E060DD61ED72E084E4CD
:1016500093E05BDD24C0FE01E353FF4F84E1DF0133
:101660001D928A95E9F763ED72E0C801BCD300973B
:1016700019F00496A5DC02C060E070E08CE993E00C
:10168000F7DC69ED72E0C801AED3009719F004965B
:1016900097DC02C060E070E084E493E0E9DC6CDD9C
:1016A000C052DF4F0FB6F894DEBF0FBECDBFDF9143
:1016B000CF911F910F910895CF93DF93CDB7DEB7F0
:1016C000C859D1400FB6F894DEBF0FBECDBF49EF69
:1016D000E42E42E0F42E50EEC52E52E0D52E64EEFC
:1016E000A62E62E0B62E7AEE872E72E0972EFA8250
:1016F000E982CD56DE4F19821882C359D140CE01FE
:101700000196FED28C01A8DC2091D0043091D10446
:10171000BC01621B730B8091C6049091C7046817CB
:101720007907A1F07093C7046093C604CB56DE4FCF
:1017300019830883C559D140C956DE4FD982C88262
:10174000C759D140CE018B569E4F22DD89DC2091B6
:10175000CC043091CD04BC01621B730B8091C40496
:101760009091C50468177907A1F07093C504609340
:10177000C404CB56DE4F19830883C559D140C956DE
:10178000DE4FB982A882C759D140CE018B569E4FF9
:10179000FFDC6ADC2091C8043091C904BC01621BE3
:1017A000730B8091C2049091C30468177907A1F06C
:1017B0007093C3046093C204CB56DE4F1983088331
:1017C000C559D140C956DE4F99828882C759D14048
:1017D000CE018B569E4FDCDCC801EBD1892B59F032
:1017E0008DE095E00E9434382091F4033091F503A8
:1017F0008217930711F0FDDE7ACF8DE095E0CB568E
:10180000DE4F99838883C559D140C956DE4F19826E
:101810001882C759D140BE016B567E4FC80101D313
:1018200067E373E08DE095E00E9430398DE095E04C
:101830000E944F37E0CFFC0120812D3051F024F47D
:101840002950223030F505C0203219F02F3219F01E
:1018500008950196F0CFFC0121812A3219F02F3230
:1018600079F008950296FC012081222321F32A3287
:1018700029F421812F3211F40296DDCF0196F3CFA6
:10188000FC013296CF0121912223A9F22A30D1F70F
:10189000D2CF08950F931F93CF93DF931F92CDB7AD
:1018A000DEB78C01FC01828193816983C4DFFC0176
:1018B00020816981261307C00196BDDFF80193835B
:1018C000828381E001C080E00F90DF91CF911F9172
:1018D0000F910895CF93DF93EC01AA81BB814C81D6
:1018E0003D812C91273219F4C42FD32F15C02232F9
:1018F000D9F3C42FD32FFD012AC03C3559F4FD0183
:10190000329612963C91AFEFB2E06C91611110C02B
:10191000332339F13993DF01AE01FD013196119680
:101920003C9111973323E9F03213E7CF319619C078
:10193000631303C011963C91EBCF1296E6CF322F82
:101940003F7D31543A3148F4299331962081AE01DC
:1019500030ED320F3A30C0F3F2CF33ED320F323088
:1019600098F3DA011D92EC012C813D81FB83EA831F
:10197000BD83AC83C901DF91CF910895BF92CF920F
:10198000DF92EF92FF920F931F93CF93DF9300D0DC
:1019900000D0CDB7DEB78C01FC0180819181B0D140
:1019A0006C016BE7C80176DF882309F43CC06DE762
:1019B000C80170DF811135C086E0B82EC8018ADF0A
:1019C0007C01009781F16AE3C80164DF882359F143
:1019D0001A821982BE016F5F7F4FC80136D08823FB
:1019E00011F1B701C601FFD1009739F4C601F0D05B
:1019F0000097C9F0FC01F382E282FE013196DC011E
:101A000014968B2D01900D928A95E1F76DE7C80130
:101A100041DF811106C06CE2C8013CDF8111CECFED
:101A200002C0C60102C089E095E026960FB6F89480
:101A3000DEBF0FBECDBFDF91CF911F910F91FF9001
:101A4000EF90DF90CF90BF900895FF920F931F9378
:101A5000CF93DF93EC018B018E81882309F443C07F
:101A600081508E838A819B81E6DE9B838A83FC0181
:101A700080818B3519F08B3759F01AC0CE013AD0DE
:101A8000FC0120813181232B49F126E030E009C09F
:101A9000CE0174DFFC0120813181232BF9F027E096
:101AA00030E0F801318320839383828381E017C083
:101AB000873231F091E0823209F090E0F92E02C0D5
:101AC000FF24F394CE0106DF009741F0FF2019F0C8
:101AD00022E030E0E6CF21E030E0E3CF80E09E81FD
:101AE0009F5F9E8301C080E0DF91CF911F910F9196
:101AF000FF900895DF92EF92FF920F931F93CF9381
:101B0000DF9300D000D0CDB7DEB78C01FC0180811F
:101B10009181E2D07C016BE5C801BCDE882351F1E4
:101B20006DE5C801B7DE811123C096E0D92E1A8277
:101B30001982BE016F5F7F4FC80187DF8823D1F014
:101B4000C70168D00097B1F0FE013196DC01129612
:101B50008D2D01900D928A95E1F76DE5C8019ADE11
:101B6000811106C06CE2C80195DE8111E0CF02C090
:101B7000C70102C085E095E026960FB6F894DEBF57
:101B80000FBECDBFDF91CF911F910F91FF90EF90CE
:101B9000DF900895DB01109749F0ED91FC911197CA
:101BA0000190F081E02DBC01CD01199480E090E01E
:101BB0000895DC011296ED91FC91139780E090E07E
:101BC000309729F001960190F081E02DF9CF08952A
:101BD000CF93DF93EC01688179818AE090E0DADFCE
:101BE000009729F0FC011182108215821482EA818B
:101BF000FB81309751F0208131812115310511F0A1
:101C0000F901F9CF9183808302C09B838A83DF919E
:101C1000CF910895CF93DF93EC016881798188E0BB
:101C200090E0B8DF009729F0FC0111821082138246
:101C30001282EA81FB81309751F020813181211598
:101C4000310511F0F901F9CF9183808302C09B83A4
:101C50008A83DF91CF910895CF93DF93EC01888140
:101C60009981DC01ED91FC910190F081E02D1995B5
:101C70002A813B81280F391F3B832A83DF91CF9133
:101C800008950F931F93CF93DF93EC018B016BE5C6
:101C9000C801E2DF0A80DB81C02D209769F0B8011E
:101CA000CE0102968DD20990D881C02D209721F0C7
:101CB0006CE2C801D1DFF3CF6DE5C801DF91CF91B0
:101CC0001F910F91C9CF1092060510920505109231
:101CD0000805109207050895CF93DF93EC01BC012E
:101CE00084E090E057DFFC01009729F0D183C083A6
:101CF0001382128202C085E095E0DF91CF910895B2
:101D0000CF93DF93EC01BC0184E090E043DFFC0162
:101D1000009729F0D183C0831382128202C089E028
:101D200095E0DF91CF910895CF93DF93CDB7DEB7E4
:101D300027970FB6F894DEBF0FBECDBF9A83898375
:101D40006115710519F487E393E001C0CB019C8311
:101D50008B837E836D834F83CE0101960FDE2796A2
:101D60000FB6F894DEBF0FBECDBFDF91CF910895BF
:101D7000FF920F931F93CF93DF93EC018B016115BB
:101D8000710591F46AE073E0888199810E942C3991
:101D90002A813B81280F391F3B832A83DF91CF9112
:101DA0001F910F91FF90089562E2CE0155DFF80177
:101DB00061918F01662351F0EBEFF2E0F080FF209C
:101DC000A1F39181961751F03296F8CF62E2CE01DD
:101DD000DF91CF911F910F91FF903ECF6CE5CE0127
:101DE0003BDF6F2DE2CF0F931F93CF93DF938B01D8
:101DF000FC01C281D381209759F0B8018A819B816F
:101E00000E94653F892B39F00990D881C02DF3CF0E
:101E100080E090E001C0CE01DF91CF911F910F9142
:101E200008950F931F93CF93DF938C01EB016BE722
:101E3000CE0112DFF8010281138101151105B1F005
:101E4000F80162817381CE0193DF6AE3CE0104DF82
:101E5000BE01C8010496B4D1F801008111810115B9
:101E6000110521F06CE2CE01F7DEEACF6DE7CE017D
:101E7000DF91CF911F910F91EFCE10920A05109232
:101E8000090510920C0510920B050895CF93DF936E
:101E9000EC01888199810E942C392A813B81280F8D
:101EA000391F3B832A83DF91CF9108958F929F92B0
:101EB000AF92BF92DF92EF92FF920F931F93CF9357
:101EC000DF93CDB7DEB766970FB6F894DEBF0FBECF
:101ED000CDBF8C0180E02AE0822E912CA12CB12C68
:101EE000DD24D394D80EEE24E394F12CEC0EFD1EE9
:101EF000E80EF11CCB01BA01A50194010E94CB3D73
:101F0000CA01605DF7016083A901BC01411551055B
:101F10006105710511F08D2DE3CFDD2059F0DA94C4
:101F2000E1E0F0E0EC0FFD1FED0DF11D6081C80157
:101F300093DEF3CF66960FB6F894DEBF0FBECDBF2B
:101F4000DF91CF911F910F91FF90EF90DF90BF90A5
:101F5000AF909F908F9008954F925F926F927F9273
:101F6000AF92BF92CF92DF92EF92FF920F931F93A7
:101F7000CF93DF93EC016A017B0159019A01AB0118
:101F8000C701B6010E94913D882319F06FE073E00C
:101F90002AC020E030E0A901C701B6010E94DB3B66
:101FA00087FF07C06DE2CE0157DEF7FAF094F7F82D
:101FB000F09426013701E89477F82FEF3FEF4FE7D1
:101FC0005FE7C301B2010E94913D81111CC02FEF58
:101FD0003FEF4FE75FE7C301B2010E94DB3B1816FA
:101FE00094F463E173E0CE01DF91CF911F910F91E3
:101FF000FF90EF90DF90CF90BF90AF907F906F9069
:102000005F904F9043CF20E030E04AE754E4C701AF
:10201000B6010E942A3D00E010E018160CF12FE6F0
:1020200032E143E85AE3C701B6010E94DB3B87FF78
:1020300037C016C020E030E040E85FE3C701B601DA
:102040000E94DB3B87FF15C00150110920E030E002
:1020500040E251E4C701B6010E942E3D6B017C01B4
:1020600020E030E0A901C701B6010E94DB3B8111ED
:10207000E1CF20E030E040E251E4C701B6010E9428
:102080002A3D18166CF40F5F1F4F20E030E040E24D
:1020900051E4C701B6010E94DF3B6B017C01E9CF2F
:1020A000712C60E070E080E09FE3272D30E02A157E
:1020B0003B0544F420E030E040E251E40E94DF3B85
:1020C0007394F3CF9B01AC01C701B6010E94773B2B
:1020D0006B017C010E944C3C2B013C010E94783C2E
:1020E0009B01AC01C701B6010E94763B6B017C01EC
:1020F000B301A201CE01DADE1A141B041CF46EE255
:10210000CE01AADD1A141B0414F520E030E040E2F1
:1021100051E4C701B6010E942E3D6B017C010E9473
:102120004C3C2B013C01AB01BC01CE01BFDEC30125
:10213000B2010E94783C9B01AC01C701B6010E942C
:10214000763B6B017C0181E0A81AB108DBCF17FF59
:102150000DC06CE173E0CE0199DE44275527401B8A
:10216000510B662757FD6095762F0BC001151105A1
:10217000C1F065E6CE0170DDA801662757FD6095C8
:10218000762FCE01DF91CF911F910F91FF90EF90AD
:10219000DF90CF90BF90AF907F906F905F904F9007
:1021A00085CEDF91CF911F910F91FF90EF90DF903F
:1021B000CF90BF90AF907F906F905F904F900895B9
:1021C0000F931F93CF93DF938C01EB01FC012081D0
:1021D00031812830310508F044C0F901EE58FF4F35
:1021E0000C94093EFC0182819381DF91CF911F9174
:1021F0000F9147CDFC0182819381DF91CF911F9197
:102200000F910FCEFC0162817381CE01DF91CF91DE
:102210001F910F91ADCDFC01628173811CC06DE2F5
:10222000CE011ADDF8014281538164817581CE01AE
:10223000DF91CF911F910F9139CEFC0142815381E3
:1022400064817581452B462B472B19F06BEA72E0B0
:1022500002C06FE173E0CE01DF91CF911F910F912A
:1022600015CE285030E0FC01428153816481758194
:10227000CE01DF91CF911F910F916ECEDF91CF9163
:102280001F910F9108958F929F92AF92BF92CF921C
:10229000DF92EF92FF920F931F93CF93DF931F92E2
:1022A0001F92CDB7DEB78C0149832A83660F771F53
:1022B000F801EA5AFF4FE080F180EE0CFF1CF801B4
:1022C000CF01801B910B8E159F0514F41192F8CF4E
:1022D0008981F801E60FF71F81838A818083680175
:1022E00084E5C80ED11C60E0F60180810E94043BA9
:1022F0005801F2E5AF0EB11C480180E5880E911C33
:102300001E141F047CF4E1E0EE1AF108F801EE0D52
:10231000FF1D208141E0F5016081F40180810E9470
:10232000393BEECF61E0F60180810F900F90DF9195
:10233000CF911F910F91FF90EF90DF90CF90BF90C2
:10234000AF909F908F900C94043B77FD0FC0FC01E1
:10235000EA5AFF4F20813181621773073CF444230E
:1023600011F020E001C021E04CE08DCF089577FD11
:102370000EC0FC01EA5AFF4F2081318162177307BA
:1023800034F44830510518F4242F4BE07CCF0895E5
:1023900077FD0EC0FC01EA5AFF4F208131816217A0
:1023A000730734F44031510518F4242F4AE06BCF01
:1023B0000895CF92DF92EF92FF920F931F93CF93E6
:1023C000DF937C018B0177FD20C0FC01EA5AFF4FAF
:1023D0008081918168177907C4F46B0123E0CC0CEC
:1023E000DD1C2A95E1F7C0E0D0E0CE0CDF1CF60141
:1023F000EC0FFD1F108A4C2F4F5F20E0B801C70182
:1024000042DF2196C830D10591F7DF91CF911F911E
:102410000F91FF90EF90DF90CF9008954F925F92D1
:102420007F928F929F92AF92BF92CF92DF92EF9264
:10243000FF920F931F93CF93DF931F92CDB7DEB719
:102440002C01762E7C0180E5E80EF11CF7016083FB
:1024500071834201F2E58F0E911CF4015183408398
:102460006201F4E5CF0ED11CF60131832083C8014F
:102470000197089710F008E010E05201F6E5AF0E62
:10248000B11CF5011183008361E0872D79830E94DF
:10249000CB3A61E0F40180810E94CB3A61E0F60121
:1024A00080810E94CB3A61E0F60180810E94043B6A
:1024B000F70170827981718380E090E0F201E80F8A
:1024C000F91F108A019680349105C1F700E010E0F1
:1024D000F5018081918108171907CCF420E04FE0C5
:1024E000B801C201D0DE47E050E0B801C2013FDFD1
:1024F00020E049E0B801C201C6DEB801C20159DFDF
:1025000041E0B801C20121DF0F5F1F4FE1CF0F9003
:10251000DF91CF911F910F91FF90EF90DF90CF90BF
:10252000BF90AF909F908F907F905F904F90089555
:102530000F9377FD24C0DC01AA5ABF4F0D90BC91C8
:10254000A02D6A177B07DCF448305105C0F4203118
:10255000B0F4DB0133E0AA0FBB1F3A95E1F7E22F9D
:10256000F0E0E856FE4F249101112068A80FB91F32
:10257000A40FB51F50962C934F5F0F9184CE0F91EF
:1025800008950F9377FD24C0DC01AA5ABF4F0D9028
:10259000BC91A02D6A177B07DCF448305105C0F4CC
:1025A000DB01E3E0AA0FBB1FEA95E1F727FD20E27C
:1025B000E22FF0E0E856FE4F249101112068A80FA9
:1025C000B91FA40FB51F50962C934F5F0F915BCE90
:1025D0000F910895FC01283009F4FAC018F4213055
:1025E00041F00895203109F403C1213109F40EC1ED
:1025F000089587858430C9F4A08DB18D82A19C9106
:10260000613019F4982B9C9303C0809589238C9397
:10261000A28DB38D9C9183A1809589238C93A28DEB
:10262000B38D8C9193A1892B0BC0A089B189868D24
:102630009C91613019F4982B9C9303C08095892359
:102640008C93A08DB18D82A19C9147FF03C0982BE4
:102650009C9303C0809589238C93A28DB38D9C910C
:1026600083A1809589238C93A28DB38D8C9193A1A6
:10267000892B8C93A08DB18D82A19C9146FF03C0C4
:10268000982B9C9303C0809589238C93A28DB38D46
:102690009C9183A1809589238C93A28DB38D8C917D
:1026A00093A1892B8C93A08DB18D82A19C9145FF24
:1026B00003C0982B9C9303C0809589238C93A28D93
:1026C000B38D9C9183A1809589238C93A28DB38D2A
:1026D0008C9193A1892B8C93A08DB18D82A19C911B
:1026E00044FF03C0982B9C9303C0809589238C934F
:1026F000A28DB38D9C9183A1809589238C93A28D0B
:10270000B38D8C9193A1892B8C93A08DB18D82A1D7
:102710009C9143FF03C0982B9C9303C08095892311
:102720008C93A28DB38D9C9183A1809589238C93EA
:10273000A28DB38D8C9193A1892B8C93A08DB18D9B
:1027400082A19C9142FF03C0982B9C9303C080956B
:1027500089238C93A28DB38D9C9183A1809589232D
:102760008C93A28DB38D8C9193A1892B8C93A08D8A
:10277000B18D82A19C9141FF03C0982B9C9303C013
:10278000809589238C93A28DB38D9C9183A1809594
:1027900089238C93A28DB38D8C9193A1892B8C93DB
:1027A000A08DB18D82A19C9140FF03C0982B9C937A
:1027B00003C0809589238C93A28DB38D9C9183A1B6
:1027C000809589238C93A28DB38D8C9193A1AEC0FB
:1027D00062B9A289B3899C91878D809589238C9356
:1027E000A289B3898C91978D892B8C9342B902C0B1
:1027F00062B948B9A289B3899C91878D8095892354
:102800008C93A289B3898C91978D90C0A59894B32D
:10281000862F8071880F892B84BB80910201877E6F
:102820008093020120910201862F992787FD9095C0
:10283000807C992733E0959587953A95E1F7282B89
:10284000209302018EB1847C8EB99EB1862F8C704C
:10285000880F880F262F2370820F6072772767FDFD
:1028600070957595679575956795860F892B8EB9C7
:10287000A48DB58D9C9184A1809589238C93A48D82
:10288000B58D8C9194A1892B8C93A48DB58D9C9141
:1028900084A1809589238C93A489B5899C9180A17A
:1028A000809589238C93A59894B3842F8071880F89
:1028B000892B84BB80910201877E80930201209145
:1028C0000201842F992787FD9095807C992763E0EA
:1028D000959587956A95E1F7282B209302018EB193
:1028E000847C8EB99EB1842F8C70880F880F242F22
:1028F0002370820F4072552747FD50955595479597
:1029000055954795840F892B8EB9A289B3899C91DF
:10291000878D809589238C93A289B3898C91978D1B
:10292000892B8C93A489B5898C9190A1892B8C9348
:102930000895613131F08FEF81B9603149F487B981
:10294000089588E18093010180E283BB8BE38DB918
:1029500008958F929F92AF92BF92CF92DF92EF92A3
:10296000FF920F931F93CF93DF93EC0168017901DE
:1029700062B948B9C901B80120E130E040E050E057
:102980000E94ED3D812C912C540182169306A406E1
:10299000B5060CF0D6C0EA89FB8990818F8D8095B1
:1029A00089238083EA89FB8980819F8D892B80839D
:1029B000EA89FB8990818F8D809589238083EA89BC
:1029C000FB8980819F8D892B8083EA89FB89908197
:1029D0008F8D809589238083EA89FB8980819F8DF3
:1029E000892B8083EA89FB8990818F8D809589234B
:1029F0008083EA89FB8980819F8D892B8083EA8986
:102A0000FB8990818F8D809589238083EA89FB895A
:102A100080819F8D892B8083EA89FB8990818F8DAE
:102A2000809589238083EA89FB8980819F8D892B0A
:102A30008083EA89FB8990818F8D809589238083AB
:102A4000EA89FB8980819F8D892B8083EA89FB89B4
:102A500090818F8D809589238083EA89FB8980818D
:102A60009F8D892B8083EA89FB8990818F8D80954A
:102A700089238083EA89FB8980819F8D892B8083CC
:102A8000EA89FB8990818F8D809589238083EA89EB
:102A9000FB8980819F8D892B8083EA89FB899081C6
:102AA0008F8D809589238083EA89FB8980819F8D22
:102AB000892B8083EA89FB8990818F8D809589237A
:102AC0008083EA89FB8980819F8D892B8083EA89B5
:102AD000FB8990818F8D809589238083EA89FB898A
:102AE00080819F8D892B8083EA89FB8990818F8DDE
:102AF000809589238083EA89FB8980819F8D892B3A
:102B00008083EA89FB8990818F8D809589238083DA
:102B1000EA89FB8980819F8D892B8083EA89FB89E3
:102B200090818F8D809589238083EA89FB898081BC
:102B30009F8D892B80838FEF881A980AA80AB80A7C
:102B400024CFB701A6014F70552766277727452B5D
:102B5000462B472B19F1C701B60120E130E040E0D8
:102B600050E00E94ED3DC12CD12C76016C157D0505
:102B70008E059F059CF0EA89FB8930812F8D209579
:102B800023232083EA89FB8920813F8D232B208307
:102B90002FEFC21AD20AE20AF20AE8CFDF91CF91F0
:102BA0001F910F91FF90EF90DF90CF90BF90AF906B
:102BB0009F908F9008958F929F92AF92BF92CF92E5
:102BC000DF92EF92FF92CF93DF93EC0169017A01DC
:102BD00062B9CA01B90120E130E040E050E00E9452
:102BE000ED3D812C912C540182169306A406B50666
:102BF0000CF0A6C1EA89FB8990818F8D809589238D
:102C00008083EA89FB8980819F8D892B8083EA8973
:102C1000FB8990818F8D809589238083EA89FB8948
:102C200080819F8D892B8083EA89FB8990818F8D9C
:102C3000809589238083EA89FB8980819F8D892BF8
:102C40008083EA89FB8990818F8D80958923808399
:102C5000EA89FB8980819F8D892B8083EA89FB89A2
:102C600090818F8D809589238083EA89FB8980817B
:102C70009F8D892B8083EA89FB8990818F8D809538
:102C800089238083EA89FB8980819F8D892B8083BA
:102C9000EA89FB8990818F8D809589238083EA89D9
:102CA000FB8980819F8D892B8083EA89FB899081B4
:102CB0008F8D809589238083EA89FB8980819F8D10
:102CC000892B8083EA89FB8990818F8D8095892368
:102CD0008083EA89FB8980819F8D892B8083EA89A3
:102CE000FB8990818F8D809589238083EA89FB8978
:102CF00080819F8D892B8083EA89FB8990818F8DCC
:102D0000809589238083EA89FB8980819F8D892B27
:102D10008083EA89FB8990818F8D809589238083C8
:102D2000EA89FB8980819F8D892B8083EA89FB89D1
:102D300090818F8D809589238083EA89FB898081AA
:102D40009F8D892B8083EA89FB8990818F8D809567
:102D500089238083EA89FB8980819F8D892B8083E9
:102D6000EA89FB8990818F8D809589238083EA8908
:102D7000FB8980819F8D892B8083EA89FB899081E3
:102D80008F8D809589238083EA89FB8980819F8D3F
:102D9000892B8083EA89FB8990818F8D8095892397
:102DA0008083EA89FB8980819F8D892B8083EA89D2
:102DB000FB8990818F8D809589238083EA89FB89A7
:102DC00080819F8D892B8083EA89FB8990818F8DFB
:102DD000809589238083EA89FB8980819F8D892B57
:102DE0008083EA89FB8990818F8D809589238083F8
:102DF000EA89FB8980819F8D892B8083EA89FB8901
:102E000090818F8D809589238083EA89FB898081D9
:102E10009F8D892B8083EA89FB8990818F8D809596
:102E200089238083EA89FB8980819F8D892B808318
:102E3000EA89FB8990818F8D809589238083EA8937
:102E4000FB8980819F8D892B8083EA89FB89908112
:102E50008F8D809589238083EA89FB8980819F8D6E
:102E6000892B8083EA89FB8990818F8D80958923C6
:102E70008083EA89FB8980819F8D892B8083EA8901
:102E8000FB8990818F8D809589238083EA89FB89D6
:102E900080819F8D892B8083EA89FB8990818F8D2A
:102EA000809589238083EA89FB8980819F8D892B86
:102EB0008083EA89FB8990818F8D80958923808327
:102EC000EA89FB8980819F8D892B8083EA89FB8930
:102ED00090818F8D809589238083EA89FB89808109
:102EE0009F8D892B8083EA89FB8990818F8D8095C6
:102EF00089238083EA89FB8980819F8D892B808348
:102F0000EA89FB8990818F8D809589238083EA8966
:102F1000FB8980819F8D892B8083EA89FB89908141
:102F20008F8D809589238083EA89FB8980819F8D9D
:102F3000892B80838FEF881A980AA80AB80A54CE82
:102F4000B701A6014F70552766277727452B462BDB
:102F5000472B81F1C701B60120E130E040E050E0AD
:102F60000E94ED3DC12CD12C76016C157D058E059E
:102F70009F0504F1EA89FB8930812F8D2095232359
:102F80002083EA89FB8920813F8D232B2083EA89D6
:102F9000FB8930812F8D209523232083EA89FB89AB
:102FA00020813F8D232B20832FEFC21AD20AE20A01
:102FB000F20ADBCFDF91CF91FF90EF90DF90CF90BF
:102FC000BF90AF909F908F9008954F925F926F92B5
:102FD0007F92AF92BF92CF92DF92EF92FF920F93C8
:102FE0001F93CF93DF93CDB7DEB7C45AD1090FB685
:102FF000F894DEBF0FBECDBF5C0180E4EBE0F2E0F1
:10300000DE01AF5BBF4F01900D928A95E1F780E43E
:10301000EBE4F2E0DE01119601900D928A95E1F762
:1030200080E2EBE8F2E0DE01AF57BF4F01900D9276
:103030008A95E1F7862F90E0FE01EF5BFF4FDC0100
:10304000AA0FBB1FEA0FFB1F0190F081E02D2F019B
:10305000612C712CF5014582568267827086E1E011
:10306000F0E0EC0FFD1FAE0FBF1F4D905C90612C88
:10307000712CD50119964D925D926D927C921C97A0
:10308000E1E8F0E0EC0FFD1FE80FF91F80811E96CC
:103090008C931E971D966C931D9795964C939597C0
:1030A00096962C93969797960C9397979896EC9262
:1030B00098979996CC929997843031F491E01E9626
:1030C0009C931E971F968C93F5018685853019F485
:1030D00091E096878787D5011E966C91613009F43F
:1030E000BEC0C501CD55DF4F2883C35AD040CC5553
:1030F000DF4F3883C45AD040CF55DF4F4883C15A81
:10310000D040CE55DF4F5883C25AD04012DCCF5545
:10311000DF4F4881C15AD040842FCE55DF4F5881B0
:10312000C25AD040952FFC01E857F14FE491F0E0EE
:10313000EE0FFF1FE253F14F45915491F501518B72
:10314000408BFC01EE5BF14F8491D5015E968C9330
:10315000CD55DF4F2881C35AD040822FCC55DF4F49
:103160003881C45AD040932FFC01E857F14FE491C5
:10317000F0E0EE0FFF1FE253F14F25913491F5017E
:10318000338B228BFC01EE5BF14F8491D5015F966E
:103190008C93C801F801E857F14FE491F0E0EE0F8D
:1031A000FF1FE253F14F25913491F501358B248BAC
:1031B000FC01EE5BF14F8491D50190968C93F70161
:1031C000E857F14FE491F0E0EE0FFF1FE253F14FAB
:1031D00085919491F501978B868BF701EE5BF14F0A
:1031E000E491D5019196EC9391971E968C91813143
:1031F00009F0AEC0F601E857F14FE491F0E0EE0FB0
:10320000FF1FE253F14FA591B491F501B58FA48F43
:10321000F601EE5BF14F8491F50184A39C918095BA
:1032200098239C9361E088E00E94CB3A60E088E0BC
:10323000CC55DF4F0FB6F894DEBF0FBECDBFDF9188
:10324000CF911F910F91FF90EF90DF90CF90BF90A3
:10325000AF907F906F905F904F900C94043BCA01A9
:10326000FA01E857F14FE491F0E0EE0FFF1FE2534F
:10327000F14F45915491D50159965C934E935897CF
:10328000FC01EE5BF14F8491F50182A3C901F901C4
:10329000E857F14FE491F0E0EE0FFF1FE253F14FDA
:1032A00025913491D5015B963C932E935A97FC015E
:1032B000EE5BF14F8491F50183A3F801E857F14FDC
:1032C000E491F0E0EE0FFF1FE253F14F25913491AE
:1032D000D50155963C932E935497F801EE5BF14F30
:1032E0008491F50180A3FFEFEF16F104B9F0F70127
:1032F000E857F14FE491F0E0EE0FFF1FE253F14F7A
:1033000085919491D50157969C938E935697F7018A
:10331000EE5BF14FE491D5019196EC93F501878531
:103320008430B1F0F601E857F14FE491F0E0EE0F90
:10333000FF1FE253F14F25913491D50151963C93F3
:103340002E935097F601EE5BF14F8491F501868F35
:10335000CC55DF4F0FB6F894DEBF0FBECDBFDF9167
:10336000CF911F910F91FF90EF90DF90CF90BF9082
:10337000AF907F906F905F904F900895462FDC0143
:103380001E962C911E97213071F05096ED91FC9174
:10339000519730815E962C915E9720952323208350
:1033A0001E962C9101C021E060E014C91F93CF93B9
:1033B000DF93EC01142F8E85813041F0E889F98983
:1033C00080819E8D892B80832E8508C021E0462F29
:1033D00061E0CE01FFD82E85412F61E0CE01DF9163
:1033E000CF911F91F7C8462FDC011E962C911E9796
:1033F000213071F05096ED91FC91519720815E96AD
:103400003C915E97232B20831E962C9160E002C096
:1034100021E061E0DFC80F931F93CF93DF931F92EA
:103420001F92CDB7DEB78C0149835A83A7DF49814C
:103430005A81652FC8010F900F90DF91CF911F9196
:103440000F91B4CF6F927F928F929F92AF92BF9263
:10345000CF920F931F93CF93DF93EC015B013A015F
:1034600049018C81813059F489859A859C01261BFC
:10347000370B88199909480189015A013C01CD840B
:103480008C2D90E08032910508F02BC1FC01E658AC
:10349000FF4F0C94093E4B2D50E062E0CE01BBDFA4
:1034A000A50163E0CE01B7DF492D50E064E0CE0115
:1034B000B2DFA40165E0CE01AEDF472D50E066E04B
:1034C000CE01A9DFA30167E0CE01A5DF412F50E0C7
:1034D00071C06AE2CE0152DF4B2D60E0CE0166DFA3
:1034E0004A2D60E0CE0162DF492D60E0CE015EDF53
:1034F000482D60E0CE015ADF6BE2CE013FDF472D61
:1035000060E0CE0153DF462D60E0CE014FDF412F5A
:1035100060E0CE014BDF402F60E0CE0147DFD3C03B
:10352000582D44274A0D5B1D64E4CE0174DFA301CE
:1035300065E4CE0170DFA80166E4CE016CDFA50171
:103540006EE4CE0168DFA3016FE489C0A50160E2EB
:10355000CE0161DFA30161E2CE015DDFA50160E57F
:10356000CE0159DFA30162E5CE0155DFA40161E57B
:10357000CE0151DFA80163E572C040E050E062E097
:10358000CE0149DFA50163E0CE0145DF40E050E018
:1035900064E0CE0140DFA40165E0CE013CDF40E005
:1035A00050E066E0CE0137DFA30167E0CE0133DFF4
:1035B00040E050E068E0CE012EDFA80169E04FC096
:1035C0006AE2CE01DBDE6A2DCE010DDF682DCE0171
:1035D0000ADF6BE2CE01D2DE662D70C06AE2CE0158
:1035E000CDDE672DCE01FFDE662DCE01FCDE612F24
:1035F000CE01F9DE602FCE01F6DE6BE2CE01BEDE3B
:103600006B2DCE01F0DE6A2DCE01EDDE692DCE01EF
:10361000EADE682D56C0582D44274A295B2966E406
:10362000CE01F9DEA80167E4CE01F5DEA30168E46E
:103630000EC0A40166E3CE01EEDEA50167E3CE0174
:10364000EADEA80168E3CE01E6DEA30169E3CE016C
:10365000E2DEA50160E2CE01DEDEA30161E2CE0181
:10366000DADE62E231C0A30162E0CE01D4DEA50160
:1036700063E0CE01D0DEA80166E0CE01CCDEA4017D
:1036800067E0CE01C8DE6FE01FC06AE2CE0176DEE1
:103690006B2DCE01A8DE6A2DCE01A5DE692DCE01EF
:1036A000A2DE682DCE019FDE6BE2CE0167DE672DC4
:1036B000CE0199DE662DCE0196DE612FCE0193DE1E
:1036C000602FCE0190DE6CE2CE01DF91CF911F9191
:1036D0000F91CF90BF90AF909F908F907F906F9001
:1036E0004DCEDF91CF911F910F91CF90BF90AF90B2
:1036F0009F908F907F906F9008950F931F93CF931B
:10370000DF93EC016C8361E08DA10E94CB3A61E014
:103710008EA10E94CB3A61E08FA10E94CB3A88A58E
:103720008F3F19F061E00E94CB3A8E85813129F0FC
:10373000813039F48F85853021F461E089A50E94BC
:10374000CB3A6E85613011F0CE01F3D8EE89FF8956
:10375000808199A1892B808365E070E080E090E012
:103760000E94BA39EE89FF89908189A180958923C9
:1037700080836FE070E080E090E00E94BA39EE89CB
:10378000FF89808199A1892B80836FE070E080E0C0
:1037900090E00E94BA39EC89FD89908188A18095DA
:1037A000892380834D8550E04032510510F00C9400
:1037B000BB35FA01E656FF4F0C94093E44EA50E04F
:1037C00066E4CE0128DE43E550E067E4CE0123DE67
:1037D00040E050E068E4CE011EDE44E450E069E4DD
:1037E000CE0119DE44E050E06AE4CE0114DE47E683
:1037F00050E06BE4CE010FDE43E350E06CE4CE0119
:103800000ADE47E750E06DE4CE0105DE42E150E01C
:103810006EE4CE0100DE4CE450E06FE4CE01FBDD4F
:1038200046E450E060E5CE01F6DD44E450E061E5B9
:10383000CE01F1DD40E050E062E0CE01ECDD40E0A1
:1038400050E063E0CE01E7DD40E050E064E0CE010F
:10385000E2DD4FEE50E065E0CE01DDDD40E050E01E
:1038600066E0CE01D8DD40E050E067E0CE01D3DD78
:1038700041E050E068E0CE01CEDD4FE350E069E08A
:10388000CE01C9DD46E050E061E0CE01C4DD48EC88
:1038900050E066E1CE01BFDD45E950E063E2CE01D4
:1038A000BADD45E950E064E2CE01B5DD4FEF50E00E
:1038B00065E2CE01B0DD42E050E067E2CE01ABDD73
:1038C00042E050E068E2CE01A6DD42E050E069E26D
:1038D000CE01A1DD42E050E06AE2CE019CDD42E093
:1038E00050E06CE2CE0197DD42E050E06DE2CE01A7
:1038F00092DD41E050E06AE3CE018DDD40E050E032
:103900006BE3CE0188DD40EF50E06CE3CE0183DD58
:1039100040E050E06DE3CE017EDD61E070E080E0EC
:1039200090E00E94BA3948E350E065E3CE0173DDD0
:1039300048E750E066E3CE016EDD48E350E06EE319
:10394000CE0169DD4FE050E060E4CE0164DD40EF80
:1039500050E061E4CE015FDD49E450E069E1CE0171
:103960005ADD4FE050E063E9CE0155DD61E070E0E3
:1039700080E090E00E94BA3940E450E060E2CE017D
:103980004ADD47E050E06DE1CE0145DD40E050E02A
:103990006EE1CE0140DD44E050E06FE1CE013BDD61
:1039A0004DE450E064E4CE0136DD4EE050E065E4E5
:1039B000CE0131DD61E070E080E090E00E94BA3934
:1039C00044E050E06CE1CE0126DD62E070E080E092
:1039D00090E00E94BA3948E150E06BE1CE011BDD76
:1039E00061E070E080E090E00E94BA3940E150E090
:1039F0006BE1CE0110DD61E070E080E090E00E94BC
:103A0000BA3940E850E063E4CE0105DD62E070E0E1
:103A100080E090E00E94BA394FE750E060E9CE01C3
:103A2000FADC44E050E066E2CE01F5DC61E070E0F3
:103A300080E090E00E94BA3944E250E066E2CE01B4
:103A4000EADC4CE250E066E2CE01E5DC61E070E0E9
:103A500080E090E00E94BA394CE350E066E2CE018B
:103A6000DADC42E050E067E5CE01D5DC41E050E031
:103A700065E9CE01D0DC40E050E067E5B4C169EE15
:103A8000CE017CDC40E260E0CE0190DC61E1CE0161
:103A900075DC64E670E080E090E00E94BA3961ED88
:103AA000CE016CDC40E060E0CE0180DC41E760E00C
:103AB000CE017CDC49E160E0CE0178DC60EDCE0136
:103AC0005DDC47E060E0CE0171DC41E060E0CE010A
:103AD0006DDC48E060E0CE0169DC66E3CE014EDCDF
:103AE00048E460E0CE0162DC6AE3CE0147DC45E0F9
:103AF00060E0CE015BDC61ECCE0140DC40E160E0E7
:103B0000CE0154DC40E160E0CE0150DC42E060E0F8
:103B1000CE014CDC42E060E0CE0148DC60ECCE013E
:103B20002DDC40E060E0CE0141DC45E360E0CE0109
:103B30003DDC40E060E0CE0139DC40E060E0CE01F9
:103B400035DC41E060E0CE0131DC42E060E0CE01F6
:103B50002DDC65ECCE0112DC44E060E0CE0126DC19
:103B600062EDCE010BDC41E060E0CE011FDC44E4FD
:103B700060E0CE011BDC68ECCE0100DC44E060E0DC
:103B8000CE0114DC47E660E0CE0110DC45E360E0E6
:103B9000CE010CDC44E060E0CE0108DC48E060E0EF
:103BA000CE0104DC46E060E0CE0100DC44E260E0EF
:103BB000CE01FCDB41E060E0CE01F8DB47E360E0F2
:103BC000CE01F4DB40E460E0CE01F0DB43E060E0F6
:103BD000CE01ECDB40E160E0CE01E8DB48E060E0F4
:103BE000CE01E4DB40E860E0CE01E0DB40E060E0F5
:103BF000CE01DCDB6AE2CE01C1DB40E060E0CE0159
:103C0000D5DB40E060E0CE01D1DB40E060E0CE01FA
:103C1000CDDB4FEE60E0CE01C9DB6BE2CE01AEDB67
:103C200040E060E0CE01C2DB40E060E0CE01BEDB00
:103C300041E060E0CE01BADB4FE860E0CE01B6DBE8
:103C400069E2CE019BDB6CE2CE0198DB0C94BB35C4
:103C500041E050E060E0CE01DEDB44EA58EA63E098
:103C6000CE01D9DB40E050E06CE0CE01D4DB4CE08B
:103C700058E06DE0CE01CFDB40E05BE26EE0CE01CC
:103C8000CADB47EB50E06EE1CE01C5DB4FE35BE200
:103C900061E0CE01C0DB40E056E062E0CE01BBDB7C
:103CA00040E050E060E1CE01B6DB40E750E661E184
:103CB000CE01B1DB40E050E065E0CE01ACDB40E09E
:103CC00050E066E0CE01A7DB4CE15FEE66E1CE019D
:103CD000A2DB43E050E067E1CE019DDB43E352E02D
:103CE00067E0CE0198DB40E050E06BE0CE0193DB73
:103CF00040E050E06FE0CE018EDB40E050E061E458
:103D0000CE0189DB40E050E062E4CE0184DB40E09C
:103D100050E068E4CE017FDB4FE351E069E4CE017F
:103D20007ADB40E050E06AE4CE0175DB40E050E031
:103D30006BE4CE0170DB40E05FEE64E4CE016BDB50
:103D400040E050E065E4CE0166DB4FE351E066E41D
:103D5000CE0161DB47E057E060E3CE015CDB44E08D
:103D600052E061E3CE0157DB44E052E062E3CE0172
:103D700052DB42E055E063E3CE014DDB47E055E026
:103D800064E3CE0148DB44E052E065E3CE0143DB6F
:103D900044E052E066E3CE013EDB42E055E067E3FB
:103DA000CE0139DB42E053E06AE3CE0134DB42E08E
:103DB00053E06BE3CE012FDB40E050E063E2CE0145
:103DC0002ADB40E050E064E2CE0125DB40E050E831
:103DD00065E2CE0120DB40E050E06FE4CE011BDB6A
:103DE00040E050E06EE4CE0116DB62E22DCF40EF02
:103DF00058E765EECE010FDB40E051E061E0CE0117
:103E00000ADB40E057E062E0CE0105DB40E350E131
:103E100063E0CE0100DB40E050E064E0CE01FBDA7D
:103E200047E052E068E0CE01F6DA40E050E069E0B9
:103E3000CE01F1DA40E050E06AE0CE01ECDA40E099
:103E400050E06CE0CE01E7DA40E050E06DE0CE01FA
:103E5000E2DA40E050E06FE0CE01DDDA40E050E031
:103E600060E1CE01D8DA47E050E061E1CE01D3DA7B
:103E700040E050E062E1CE01CEDA40E050E063E1A4
:103E8000CE01C9DA41E050E067E0CE01C4DA68EC67
:103E900070E080E090E00E94BA3940E950E160E1D2
:103EA000CE01B9DA47E252E061E1CE01B4DA62E371
:103EB00070E080E090E00E94BA394FE150E062E1AA
:103EC000CE01A9DA62E370E080E090E00E94BA39A6
:103ED00040E055E163E1CE019EDA47E250E069E25D
:103EE000CE0199DA4DE050E06BE2CE0194DA62E364
:103EF00070E080E090E00E94BA3940E050E060E27B
:103F0000CE0189DA40E050E061E2CE0184DA40E09F
:103F100050E060E3CE017FDA47E057E061E3CE0195
:103F20007ADA47E053E062E3CE0175DA40E052E02E
:103F300065E3CE0170DA48E050E066E3CE016BDA6B
:103F400044E050E067E3CE0166DA40E050E068E329
:103F5000CE0161DA47E057E069E3CE015CDA42E086
:103F600050E06CE3CE0157DA44E05DE16DE3CE0151
:103F700052DA40E050E060E5CE014DDA4FEE50E01D
:103F800061E5CE0148DA40E050E062E5CE0143DA77
:103F90004FE351E063E5CE013EDA40E057EA60E6E8
:103FA000CE0139DA41E050E061E6CE0134DA40E09A
:103FB00050E06AE6CE012FDA40E050E060E8CE0142
:103FC0002ADA40E050E061E8CE0125DA40E050E036
:103FD00062E8CE0120DA40E050E063E8CE011BDA6F
:103FE00040E050E064E8CE0116DA40E050E065E8D9
:103FF000CE0111DA40E150E060E9CE010CDA40E098
:1040000056E00AC140EF58E765EECE0104DA40E021
:1040100051E061E0CE01FFD940E052E062E0CE0124
:10402000FAD940E350E163E0CE01F5D940E050E039
:1040300064E0CE01F0D947E052E068E0CE01EBD970
:1040400040E050E069E0CE01E6D940E050E06AE0AF
:10405000CE01E1D940E050E06CE0CE01DCD940E097
:1040600050E06DE0CE01D7D940E050E06FE0CE01E6
:10407000D2D940E050E060E1CE01CDD947E050E038
:1040800061E1CE01C8D940E050E062E1CE01C3D980
:1040900040E050E063E1CE01BED941E050E067E08E
:1040A000CE01B9D968EC70E080E090E00E94BA39A6
:1040B00040E956E160E1CE01AED947E252E061E16C
:1040C000CE01A9D962E370E080E090E00E94BA39A5
:1040D0004DE050E062E1CE019ED962E370E080E005
:1040E00090E00E94BA3940E052E163E1CE0193D9F9
:1040F0004AE050E069E2CE018ED94DE050E06BE23B
:10410000CE0189D962E370E080E090E00E94BA3984
:1041100040E050E060E2CE017ED940E050E061E254
:10412000CE0179D940E050E060E3CE0174D944E09B
:1041300054E061E3CE016FD943E050E062E3CE0189
:104140006AD945E054E065E3CE0165D948E058E01E
:1041500066E3CE0160D947E054E067E3CE015BD966
:1041600043E053E068E3CE0156D947E057E069E306
:10417000CE0151D944E055E06CE3CE014CD948E082
:1041800058E06DE3CE0147D940E050E060E5CE0154
:1041900042D94FEE50E061E5CE013DD940E050E01C
:1041A00062E5CE0138D94FE351E063E5CE0133D962
:1041B00040E057EA60E6CE012ED941E050E061E6EA
:1041C000CE0129D940E050E06AE6CE0124D940E092
:1041D00050E060E8CE011FD940E050E061E8CE0138
:1041E0001AD940E050E062E8CE0115D940E050E035
:1041F00063E8CE0110D940E050E064E8CE010BD96D
:1042000040E050E065E8CE0106D940E150E060E9C9
:10421000CE0101D940E050E062E9CE01FCD843E391
:1042200051E067E0CE01F7D80C94BB3540EF58E77A
:1042300065EECE01F0D840E051E061E0CE01EBD870
:1042400040E057E062E0CE01E6D840E350E163E0B1
:10425000CE01E1D840E050E064E0CE01DCD847E098
:1042600052E068E0CE01D7D840E050E069E0CE01EE
:10427000D2D840E050E06AE0CE01CDD840E050E036
:104280006CE0CE01C8D840E050E06DE0CE01C3D86C
:1042900040E050E06FE0CE01BED840E050E060E189
:1042A000CE01B9D847E050E061E1CE01B4D840E09A
:1042B00050E062E1CE01AFD840E050E063E1CE01D2
:1042C000AAD841E050E067E0CE01A5D868EC70E0E4
:1042D00080E090E00E94BA3940E955E160E1CE010A
:1042E0009AD847E252E061E1CE0195D862E370E0EE
:1042F00080E090E00E94BA394CE950E062E1CE01E2
:104300008AD862E370E080E090E00E94BA3940E031
:1043100059E163E1CE017FD843E250E069E2CE018A
:104320007AD84EE050E0EBCE44E850E066E2CE01B1
:1043300072D868E270E080E090E00E94BA3948EB01
:1043400050E066E2CE0167D868E270E080E090E07D
:104350000E94BA394CEB50E066E2CE015CD864E1D1
:1043600070E080E090E00E94BA3940E050E060E602
:10437000CE0151D846E050E061E6CE014CD840E095
:1043800050E062E6CE0147D848EC50E063E6CE014B
:1043900042D864E170E080E090E00E94BA3940E7E2
:1043A00050E063E7CE0137D840E050E060E4CE0152
:1043B00032D840E450E061E4CE012DD845E450E02D
:1043C00062E4CE0128D841E050E063E4CE0123D876
:1043D00040E650E064E4CE011ED845E050E065E4DC
:1043E000CE0119D84CE050E066E4CE0114D841ED7E
:1043F00050E067E4CE010FD845E050E068E4CE011C
:104400000AD845E750E060E5CE0105D841E050E02C
:1044100061E5CE0100D847E650E062E5CE010E949A
:104420000B1A44E150E063E5CE010E940B1A42EF03
:1044300050E064E5CE010E940B1A47E050E065E5CC
:10444000CE010E940B1A43E050E066E5CE010E94C7
:104450000B1A49E450E067E5CE010E940B1A64E1B3
:1044600070E080E090E00E94BA3943E050E06FE1F4
:10447000CE010E940B1A40E050E060E2CE010E94A3
:104480000B1A44E250E064E2CE010E940B1A44E3AE
:1044900050E065E2CE010E940B1A4FE250E063E269
:1044A000CE010E940B1A64E170E080E090E00E946F
:1044B000BA3944E450E068E1CE010E940B1A41E0B1
:1044C00050E061E2CE010E940B1A40E050E061E052
:1044D000CE010E940B1A43E050E06CE1CE010E9435
:1044E0000B1A46E050E069E1CE010E940B1A64E12C
:1044F00070E080E090E00E94BA3944E850E066E263
:10450000CE010E940B1A68E270E080E090E00E9409
:10451000BA3948EB50E066E2CE010E940B1A68E21D
:1045200070E080E090E00E94BA394CEB50E066E227
:10453000CE010E940B1A64E170E080E090E00E94DE
:10454000BA3940E050E062E0CE010E940B1A40E030
:1045500050E063E0CE010E940B1A40E050E064E0BE
:10456000CE010E940B1A4FEA50E065E0CE010E9496
:104570000B1A40E050E066E0CE010E940B1A40E0CA
:1045800050E067E0CE010E940B1A40E050E068E086
:10459000CE010E940B1A4BED50E069E0CE010E9463
:1045A0000B1A64E170E080E090E00E94BA3948E0C4
:1045B00050E066E1CE010E940B1A45E050E067E151
:1045C000CE010E940B1A61E2CE010E94BE190DCCF1
:1045D00061ECCE010E94BE196FEFCE010E94F3196B
:1045E00063E8CE010E94F31960E4CE010E94F31942
:1045F00061E1CE010E94BE1964E670E080E090E0C7
:104600000E94BA396AECCE010E94BE1960E7CE0161
:104610000E94F31960E0CE010E94F31969EDCE010A
:104620000E94F31961E0CE010E94F31961E1CE010D
:104630000E94F31969ECCE010E94BE1960E9CE0117
:104640000E94F31969E4CE010E94F31960E1CE01E2
:104650000E94F31968E2CE010E94F31968E2CE01CC
:104660000E94F31960E1CE010E94F31960E0CE01CF
:104670000E94F31966E0CE010E94F31964E170E034
:1046800080E090E00E94BA3962ECCE010E94BE192F
:1046900060E6CE010E94F31961E7CE010E94F31992
:1046A00061E0CE010E94F3196EE0CE010E94F31981
:1046B00065E0CE010E94F31962E0CE010E94F31979
:1046C00069E0CE010E94F31961E3CE010E94F31963
:1046D0006AE0CE010E94F31963ECCE010E94BE197C
:1046E00067E6CE010E94F31960E3CE010E94F31940
:1046F00061E6CE010E94F31967E1CE010E94F31931
:1047000068E4CE010E94F31967E0CE010E94F3191C
:1047100065E0CE010E94F31963E3CE010E94F31914
:104720006AE070E080E090E00E94BA3965EBCE016B
:104730000E94BE1965E3CE010E94F31960E2CE012A
:104740000E94F31965E4CE010E94F31964EBCE01D7
:104750000E94BE1963E3CE010E94F31965E2CE0107
:104760000E94F3196CE4CE010E94F3196AE070E034
:1047700080E090E00E94BA396AE3CE010E94BE193F
:1047800065E0CE010E94F31969E2CE010E94BE19D4
:104790006AE070E080E090E00E94BA396AE2CE01FF
:1047A0000E94BE1960E0CE010E94F31960E0CE01C4
:1047B0000E94F31960E0CE010E94F3196FEACE0166
:1047C0000E94F3196BE2CE010E94BE1960E0CE0197
:1047D0000E94F31960E0CE010E94F31960E0CE015F
:1047E0000E94F3196BED0C94CB2C61E1CE010E9479
:1047F000BE196CE070E080E090E00E94BA3961EB95
:10480000CE010E94BE1961E0CE010E94F3196CE254
:10481000CE010E94F3196DE2CE010E94F31962EB02
:10482000CE010E94BE1961E0CE010E94F3196CE234
:10483000CE010E94F3196DE2CE010E94F31963EBE1
:10484000CE010E94BE1961E0CE010E94F3196CE214
:10485000CE010E94F3196DE2CE010E94F31961E0CE
:10486000CE010E94F3196CE2CE010E94F3196DE2B1
:10487000CE010E94F31964EBCE010E94BE1967E0DD
:10488000CE010E94F31960ECCE010E94BE1962EACB
:10489000CE010E94F31962E0CE010E94F31964E890
:1048A000CE010E94F31961ECCE010E94BE1965ECA5
:1048B000CE010E94F31962ECCE010E94BE196AE09B
:1048C000CE010E94F31960E0CE010E94F31963EC5F
:1048D000CE010E94BE196AE8CE010E94F3196AE275
:1048E000CE010E94F31964ECCE010E94BE196AE861
:1048F000CE010E94F3196EEECE010E94F31965EC11
:10490000CE010E94BE196EE0CE010E94F31966E34B
:10491000CE010E94BE1968EC97C061E1CE010E94F1
:10492000BE196CE070E080E090E00E94BA3961EB63
:10493000CE010E94BE1961E0CE010E94F3196CE223
:10494000CE010E94F3196DE2CE010E94F31962EBD1
:10495000CE010E94BE1961E0CE010E94F3196CE203
:10496000CE010E94F3196DE2CE010E94F31963EBB0
:10497000CE010E94BE1961E0CE010E94F3196CE2E3
:10498000CE010E94F3196DE2CE010E94F31961E09D
:10499000CE010E94F3196CE2CE010E94F3196DE280
:1049A000CE010E94F31964EBCE010E94BE1967E0AC
:1049B000CE010E94F31960ECCE010E94BE1962EA9A
:1049C000CE010E94F31962E0CE010E94F31964E85F
:1049D000CE010E94F31961ECCE010E94BE1965EC74
:1049E000CE010E94F31962ECCE010E94BE196AE06A
:1049F000CE010E94F31960E0CE010E94F31963EC2E
:104A0000CE010E94BE196AE8CE010E94F3196AE243
:104A1000CE010E94F31964ECCE010E94BE196AE82F
:104A2000CE010E94F3196EEECE010E94F31965ECDF
:104A3000CE010E94BE196EE0CE010E94F31966E31A
:104A4000CE010E94BE1960ECCE010E94F31960EE07
:104A5000CE010E94BE196FE0CE010E94F3196AE1F7
:104A6000CE010E94F3196FE0CE010E94F31968E1B4
:104A7000CE010E94F3196FE2CE010E94F31968E2A1
:104A8000CE010E94F31960E2CE010E94F31962E2A6
:104A9000CE010E94F3196FE1CE010E94F3196BE180
:104AA000CE010E94F31963E2CE010E94F31967E37D
:104AB000CE010E94F31960E0CE010E94F31967E075
:104AC000CE010E94F31962E0CE010E94F31960E169
:104AD000CE010E94F31961EECE010E94BE196FE073
:104AE000CE010E94F3196BE1CE010E94F3196FE031
:104AF000CE010E94F31967E1CE010E94F31963E32E
:104B0000CE010E94F3196CE2CE010E94F31969E212
:104B1000CE010E94F3196EE2CE010E94F31960E308
:104B2000CE010E94F31960E3CE010E94F31969E3FC
:104B3000CE010E94F3196FE3CE010E94F31960E0E9
:104B4000CE010E94F31967E0CE010E94F31963E0E1
:104B5000CE010E94F31960E1CE010E94F3196AE2CE
:104B6000CE010E94BE1960E0CE010E94F31960E000
:104B7000CE010E94F31960E0CE010E94F3196FE7A5
:104B8000CE010E94F3196BE2CE010E94BE1960E0D3
:104B9000CE010E94F31960E0CE010E94F31960E09B
:104BA000CE010E94F3196FE9CE010E94F31960EF64
:104BB000CE010E94BE1961E0CE010E94F31966EF9A
:104BC000CE010E94BE1960E00C94843061E0CE01F9
:104BD0000E94BE1965E2CE010E94BE1960E4CE01BA
:104BE0000E94F31961E1CE010E94BE196AE070E0F3
:104BF00080E090E00E94BA3960E2CE010E94BE19C6
:104C000068E3CE010E94BE1969E2CE010E94BE197E
:104C100063E1CE010E94BE1966E3CE010E94BE1977
:104C200060E6CE010E94F3196AE3CE010E94BE192C
:104C300065E0CE010E94F3196AE2CE010E94BE191E
:104C400060E0CE010E94F3196FE7CE010E94F319D4
:104C500064EBCE010E94BE1963E0CE010E94F319FD
:104C600068E0CE010E94F3196BE0CE010E94F319B7
:104C70006EE0CE010E94F3196AEBCE010E94BE19CC
:104C800067E0CE010E94F3196DE0CE010E94F31996
:104C90006BE2CE010E94BE1960E0CE010E94F319C2
:104CA0006FE779C661E1CE010E94BE1963E1CE01D2
:104CB0000E94BE1969E2CE010E94BE1960EBCE01CE
:104CC0000E94BE1965E0CE010E94F31960E0CE019A
:104CD0000E94F31960EFCE010E94F3196AE0CE0141
:104CE0000E94F31961E4CE010E94F31962E0CE0143
:104CF0000E94F3196AE0CE010E94F31960E3CE012D
:104D00000E94F31961E3CE010E94F31966E3CE011C
:104D10000E94F31967E3CE010E94F31960E4CE010B
:104D20000E94F31962E0CE010E94F3196FE3CE01F5
:104D30000E94F31960E4CE010E94F31962E0CE01F3
:104D40000E94F31961E8CE010E94F31964E0CE01DC
:104D50000E94F31965E0CE010E94F31964E6CE01CA
:104D60000E94F3196CEFCE010E94BE1968E8CE01D3
:104D70000E94F31960E0CE010E94F31960E1CE01B8
:104D80000E94F31961E0CE010E94F31961E0CE01A7
:104D90000E94F31960E1CE010E94F31962E4CE0192
:104DA0000E94F31962E4CE010E94F31962E2CE017F
:104DB0000E94F31961E1CE010E94F31961E1CE0175
:104DC0000E94F31962E2CE010E94F31969E9CE0153
:104DD0000E94F3196AEACE010E94F3196AEACE0131
:104DE0000E94F3196AEACE010E94F3196BEBCE011F
:104DF0000E94F3196BEBCE010E94F3196AEACE010F
:104E00000E94F31963E3CE010E94F31963E3CE011C
:104E10000E94F31961E1CE010E94F31961E0CE0115
:104E20000E94F31961E0CE010E94F31961E0CE0106
:104E30000E94F31960E0CE010E94F31960E0CE01F8
:104E40000E94F31960ECCE010E94F31960E0CE01DC
:104E50000E94F31960E0CE010E94F31960E0CE01D8
:104E60000E94F31960E0CE010E94F3196DEFCE01AC
:104E70000E94BE1968E8CE010E94F31960E0CE01DD
:104E80000E94F31960E1CE010E94F31961E0CE01A6
:104E90000E94F31961E0CE010E94F31960E1CE0196
:104EA0000E94F31962E4CE010E94F31962E4CE017C
:104EB0000E94F31962E2CE010E94F31961E1CE0172
:104EC0000E94F31961E1CE010E94F31962E2CE0162
:104ED0000E94F31969E9CE010E94F3196AEACE0132
:104EE0000E94F3196AEACE010E94F3196AEACE0120
:104EF0000E94F3196BEBCE010E94F3196BEBCE010C
:104F00000E94F3196AEACE010E94F31963E3CE010D
:104F10000E94F31963E3CE010E94F31961E1CE010F
:104F20000E94F31961E0CE010E94F31961E0CE0105
:104F30000E94F31961E0CE010E94F31960E0CE01F6
:104F40000E94F31960E0CE010E94F31960E0CE01E7
:104F50000E94F31960E0CE010E94F31960E0CE01D7
:104F60000E94F31960E0CE010E94F31963E0CE01C4
:104F70000E94F3196EEBCE010E94BE1960E0CE01D3
:104F80000E94F31965E1CE010E94F31966E1CE019A
:104F90000E94F31968E0CE010E94F31969E0CE0186
:104FA0000E94F31965E1CE010E94F31960E1CE0180
:104FB0000E94F31960E0CE010E94F31960E0CE0177
:104FC0000E94F31960E0CE010E94F31960ECCE015B
:104FD0000E94BE196EE0CE010E94F31961E0CE017D
:104FE0000E94F31960E0CE010E94F31960E0CE0147
:104FF0000E94F31960E0CE010E94F31961ECCE012A
:105000000E94BE196FE2CE010E94F31963E2CE0145
:105010000E94F31964EBCE010E94F3196FEFCE01E9
:105020000E94F31964E2CE010E94F31963E0CE01FD
:105030000E94F31960E2CE010E94F31962E0CE01F2
:105040000E94F31962E0CE010E94F31962E0CE01E2
:105050000E94F31960E2CE010E94F31960E2CE01D2
:105060000E94F31960E0CE010E94F31962ECCE01B8
:105070000E94BE1963E0CE010E94F31966E2CE01E0
:105080000E94BE1968E0CE010E94F31965E3CE01CB
:105090000E94BE1966E3CE010E94BE1964E6CE01ED
:1050A0000E94F3196AE3CE010E94BE1965E0CE01A9
:1050B0000E94F3196AE2CE010E94BE194FE361E03B
:1050C000CE010E94D6196BE2CE010E94BE196FEE8E
:1050D000CE010E94F3196CE2CE010E94BE196DE26E
:1050E000CE010E94BE1910E0612FCE010E94F3197B
:1050F0001E5F1034C9F710E0612FCE010E94F31932
:105100001F5F1034C9F710E0612FCE010E94F31920
:105110001E5F1034C9F70C94BB3563E8CE010E94C2
:10512000BE1962E0CE010E94F31965E8CE010E942B
:10513000BE1963E0CE010E94F3196BE8CE010E9414
:10514000BE1961E0CE010E94F3196CE8CE010E9405
:10515000BE1963E9CE010E94F31961E9CE010E94F4
:10516000BE1961E0CE010E94F31963E8CE010E94EE
:10517000BE1960E0CE010E94F3196EE3CE010E94D9
:10518000BE1960EBCE010E94F3196FE3CE010E94BD
:10519000BE1963E0CE010E94F31960E4CE010E94C3
:1051A000BE1960E1CE010E94F31961E4CE010E94B4
:1051B000BE1966E5CE010E94F31962E4CE010E9499
:1051C000BE1963E1CE010E94F31963E4CE010E948F
:1051D000BE1966E4CE010E94F31964E4CE010E9478
:1051E000BE1963E2CE010E94F31965E4CE010E946C
:1051F000BE1966E7CE010E94F31966E4CE010E9453
:10520000BE1960E0CE010E94F31967E4CE010E944E
:10521000BE196EE5CE010E94F31968E4CE010E942A
:10522000BE196FE4CE010E94F31969E4CE010E9419
:10523000BE1960E4CE010E94F31967E1CE010E941D
:10524000BE1961E9CE010E94F3196BE2CE010E9402
:10525000BE1969EFCE010E94F3196AE070E080E0A8
:1052600090E00E94BA396BE1CE010E94BE1964E160
:10527000CE010E94F3196AE1CE010E94BE1961E1DC
:10528000CE010E94F3196CE1CE010E94BE1966E0C6
:10529000CE010E94F3196FE1CE010E94BE1962E4B3
:1052A000CE010E94F31964E170E080E090E00E947A
:1052B000BA3969E1CE010E94BE196AE0CE010E94AE
:1052C000F31969E1CE010E94BE196AE1CE010E9484
:1052D000F31968E270E080E090E00E94BA3969E179
:1052E000CE010E94BE1962E1CE010E94F31968E26C
:1052F00070E080E090E00E94BA396EE1CE010E9439
:10530000BE1967E2CE010E94F31964E670E080E006
:1053100090E00E94BA3964E2CE010E94BE1960E6B4
:10532000CE010E94F3196DE3CE010E94BE1960E424
:10533000CE010E94F31964E3CE010E94BE1968E316
:10534000CE010E94F31965E3CE010E94BE1968E305
:10535000CE010E94F31964E2CE010E94BE1968E3F7
:10536000CE010E94F31968E270E080E090E00E94B4
:10537000BA3964E2CE010E94BE196CE3CE010E94EC
:10538000F31966E1CE010E94BE196CE1CE010E94C4
:10539000F31961E0CE010E94BE1966E0CE010E94C1
:1053A000F31965E5CE010E94BE1960E0CE010E94AE
:1053B000F31962E0CE010E94BE1960E0CE010E94A6
:1053C000F31963E0CE010E94BE1960E0CE010E9495
:1053D000F31964E0CE010E94BE1960E0CE010E9484
:1053E000F31965E0CE010E94BE196FEECE010E9456
:1053F000F31966E0CE010E94BE1960E0CE010E9462
:10540000F31967E0CE010E94BE1960E0CE010E9450
:10541000F31968E0CE010E94BE1961E0CE010E943E
:10542000F31969E0CE010E94BE196FE8CE010E9417
:10543000F3190C94F51E62EECE010E94BE1963E2D0
:10544000CE010E94F31962E0CE010E94F31964E5D7
:10545000CE010E94F31960EECE010E94BE1961E0F8
:10546000CE010E94F3196AE070E080E090E00E94B3
:10547000BA3960EECE010E94BE1963E0CE010E94EF
:10548000F3196AE070E080E090E00E94BA3961E0D0
:10549000CE010E94BE1964E670E080E090E00E94B8
:1054A000BA3966EECE010E94BE1961E0CE010E94BB
:1054B000F3196FE1CE010E94F3196FEFCE010E9444
:1054C000F31960EBCE010E94BE1960E2CE010E948A
:1054D000F31960E0CE010E94F31961E0CE010E9451
:1054E000F3196FEDCE010E94F31961E0CE010E9425
:1054F000F3196FE0CE010E94F31960E0CE010E9423
:10550000F31964EBCE010E94BE1962E0CE010E9445
:10551000F31963E1CE010E94F31960E0CE010E940D
:10552000F31968E0CE010E94F3196BE2CE010E94EC
:10553000F31960E0CE010E94F31962E0CE010E94EF
:10554000F31960E0CE010E94F31966EBCE010E94D0
:10555000BE1961E0CE010E94F31960E2CE010E9403
:10556000F31960E0CE010E94F31964E0CE010E94BD
:10557000F3196CE0CE010E94F31960E0CE010E94A5
:10558000F31962E0CE010E94F3196AEBCE010E948A
:10559000BE196FE0CE010E94F31968EBCE010E94A4
:1055A000BE1967E0CE010E94F31961E0CE010E94AE
:1055B000F31966E3CE010E94BE1962E2CE010E9499
:1055C000F31960EFCE010E94BE1963E0CE010E9484
:1055D000F31961E070E080E090E00E94BA390FE0DA
:1055E00011E02FED31E0ABC162EECE010E94BE1999
:1055F0006EE1CE010E94F31962E0CE010E94F31920
:1056000064E5CE010E94F31960EECE010E94BE193E
:1056100061E0CE010E94F3196AE070E080E090E062
:105620000E94BA3960EECE010E94BE1963E0CE013D
:105630000E94F3196AE070E080E090E00E94BA39BD
:1056400061E0CE010E94BE1964E670E080E090E067
:105650000E94BA3966EECE010E94BE1963E0CE0107
:105660000E94F3196FEFCE010E94F3196FEFCE0184
:105670000E94F31960EBCE010E94BE1964E2CE01D4
:105680000E94F31960E0CE010E94F31963E0CE019D
:105690000E94F3196FE1CE010E94F31961E0CE017F
:1056A0000E94F3196FEDCE010E94F31960E0CE0164
:1056B0000E94F31964EBCE010E94BE1963E0CE0193
:1056C0000E94F31960EACE010E94F31960E0CE0156
:1056D0000E94F3196EE2CE010E94F31960E3CE013D
:1056E0000E94F31960E0CE010E94F3196FE0CE0131
:1056F0000E94F31960E0CE010E94F31966EBCE011F
:105700000E94BE1962E0CE010E94F3196DE0CE0145
:105710000E94F31960E0CE010E94F31960E1CE010E
:105720000E94F31960E1CE010E94F31960E0CE01FE
:105730000E94F31968E0CE010E94F3196AEBCE01D2
:105740000E94BE196FE0CE010E94F31968EBCE01F2
:105750000E94BE1967E0CE010E94F31961E0CE01FC
:105760000E94F31966E3CE010E94BE1962E2CE01E7
:105770000E94F31960EFCE010E94BE1963E0CE01D2
:105780000E94F31961E070E080E090E0D2C062EE28
:10579000CE010E94BE1963E2CE010E94F31962E0BD
:1057A000CE010E94F31964E0CE010E94F31960EE6D
:1057B000CE010E94BE1961E0CE010E94F3196AE099
:1057C00070E080E090E00E94BA3960EECE010E9465
:1057D000BE1963E0CE010E94F3196AE070E080E038
:1057E00090E00E94BA3961E0CE010E94BE1964E6E1
:1057F00070E080E090E00E94BA3966EECE010E942F
:10580000BE1964E0CE010E94F31963E9CE010E9443
:10581000F31960EECE010E94F31960EBCE010E94F5
:10582000BE1960E0CE010E94F31960E0CE010E9433
:10583000F31963E0CE010E94F3196FE1CE010E94DB
:10584000F31961E0CE010E94F3196FEDCE010E94C1
:10585000F31960E0CE010E94F31964EBCE010E94BF
:10586000BE1963E0CE010E94F31960EACE010E94E6
:10587000F31960E0CE010E94F3196EE2CE010E949E
:10588000F31960E3CE010E94F31960E0CE010E949B
:10589000F3196FE0CE010E94F31960E0CE010E947F
:1058A000F31966EBCE010E94BE1962E0CE010E94A0
:1058B000F3196DE0CE010E94F31960E0CE010E9461
:1058C000F31960E1CE010E94F31960E1CE010E945C
:1058D000F31960E0CE010E94F31968E0CE010E9446
:1058E000F3196AEBCE010E94BE1965E0CE010E9459
:1058F000F31968EBCE010E94BE1967E0CE010E9449
:10590000F31961E0CE010E94F31966E3CE010E9413
:10591000BE1962E2CE010E94F31960EFCE010E942F
:10592000BE1963E0CE010E94F3196AE070E080E0E6
:1059300090E00E94BA390FED11E02FE133E040E032
:1059400050E060E070E0CE010E94221A69E2CE01D0
:105950000E94BE196EEBCE010E94BE1966E0CE0118
:105960000E94F31960EFCE010E94F31961E0CE01AD
:105970000E94F31960EFCE010E94F31960E0CE019E
:105980000E94F31960E0CE010E94F31960EDCE0190
:105990000E94BE196DE0CE010E94F3190C94231EE3
:1059A00044E050E261E1CE010E940B1A40E05CEC61
:1059B00063E1CE010E940B1A40E056E265E1CE01A0
:1059C0000E940B1A4AE255E264E1CE010E940B1AD2
:1059D00043E350E062E1CE010E940B1A44E05CEC2C
:1059E00063E1CE010E940B1A46E05CEC63E1CE015C
:1059F0000E940B1A4FE45CEC63E1CE010E940B1A8B
:105A00004FE457E663E1CE010E940B1A43E050E2F7
:105A100061E1CE010E940B1A49E056E260E3CE013B
:105A20000E940B1A4CE254E261E3CE010E940B1A71
:105A300043E25FE162E3CE010E940B1A45E254E2C9
:105A400063E3CE010E940B1A46E252E264E3CE0108
:105A50000E940B1A43E255E265E3CE010E940B1A45
:105A60004AE15CE166E3CE010E940B1A4DE153E18D
:105A700067E3CE010E940B1A41E15BE068E3CE01CF
:105A80000E940B1A40E152E169E3CE010E940B1A19
:105A900045E153E16AE3CE010E940B1A49E156E366
:105AA0006BE3CE010E940B1A40E05DE06CE3CE0197
:105AB0000E940B1A4DE050E06DE3CE010E940B1ADC
:105AC00047E050E066E1CE010E940B1A43E150E04E
:105AD00062E0CE010E940B1A43E050E063E0CE0189
